:020000040800F2
:100000000004002061020008610300086103000889
:100010006103000861030008610300086103000830
:100020006103000861030008610300088103000800
:10003000610300086103000861030008410400082F
:100040006103000861030008610300086103000800
:1000500061030008610300086103000861030008F0
:10006000610300086103000861030008B11700087C
:10007000E11700081118000841180008711800085D
:10008000A1180008D1180008F11C00081120000870
:100090003120000851200008712000086103000889
:1000A00061030008610300086103000861030008A0
:1000B0006103000861030008C12F00086103000804
:1000C0006103000861030008610300086103000880
:1000D0006103000861030008D131000861030008D2
:1000E0006103000861030008610300086103000860
:1000F000610300086103000861030008011900089A
:10010000610300086103000861030008610300083F
:10011000610300086103000861030008610300082F
:10012000311900086119000891190008C119000867
:10013000F11900086103000861030008912000081C
:10014000B1200008D1200008F1200008912D0008FE
:10015000211A0008511A0008811A000861030008DA
:1001600061030008610300086103000861030008DF
:1001700061030008610300086103000861030008CF
:1001800061030008610300086103000861030008BF
:1001900061030008610300086103000861030008AF
:0C01A0006103000861030008610300080F
:1001B00008B500F075FE00F0B3F91B4B1B4C4FF473
:1001C00080404FF480514FF400524FF400455D835E
:1001D000588359835A8303F0B3F92378042B05D04D
:1001E000C82000F01DFC2378042BF9D110481149D8
:1001F00000F0E6FE104840214FF4817202F088F8CA
:100200000D484FF480714FF4817202F081F80A4872
:100210004FF400714FF4817202F07AF84FF0FF3022
:1002200003F04EFAFAE700BF000C0240E80A002093
:10023000F00C00200808002000040240AFF300800A
:10024000704700BFAFF30080AFF30080AFF30080D2
:10025000FEE700BFAFF30080AFF30080AFF3008094
:1002600072B6304880F30988022383F31488BFF301
:100270006F8F2D4B2D4A93420BD2D943114421F05D
:10028000030119444FF05532043B43F8042F8B42CD
:10029000FBD1274B83420CD226491A1D891A21F023
:1002A000030119444FF05532043B43F8042F8B42AD
:1002B000FBD103F025F82049204B99420BD2C843CB
:1002C000184420F003001E4C04300023E258CA50AA
:1002D00004338342FAD11B4B1B4A93420AD2D943BF
:1002E000114421F0030119440022043B43F8042F78
:1002F0008B42FBD1154D164CFFF7A2FFAC4204D246
:1003000054F8043B9847AC42FAD3124D124CFFF715
:100310004FFFAC4204D254F8043B9847AC42FAD3A6
:10032000FFF796FF000800200000002000040020D6
:100330000004002003080020000800203C080020E2
:10034000C03B000840080020C80E0020AC01000897
:10035000AC010008AC010008AC010008AFF300805C
:10036000FEE700BFAFF30080AFF30080AFF3008083
:1003700000F09EFA00DF00BFAFF30080AFF3008013
:10038000EFF30983203383F30988002383F3118873
:10039000704700BFAFF30080AFF30080AFF3008081
:1003A00008B5094B094A002199600720DA6010213D
:1003B00000F08EF80A20202100F08AF80B2080211E
:1003C000BDE8084000F084B800ED00E00003FA0545
:1003D000202383F31188164B5B6813F4006319D054
:1003E000EFF309834FF0807243F8042CA3F120024D
:1003F00082F309880F498A690968D07F8968926801
:1004000058B1914294BF0022012262B10A4A43F8D6
:10041000082C704783F311887047914234BF002243
:100420000122002AF2D1054A43F8082C704700BF88
:1004300000ED00E078090020710300087403000853
:1004400008B5202383F3118800F09AF8002383F382
:100450001188BDE80840FFF7BBBF00BFAFF30080C5
:100460002DE9F04FC1F80CD0D0F80CD0BDE8F08FDA
:10047000002383F311882846A04700F001FB704752
:1004800020F0030202F1604202F56142F0B4430938
:1004900000F00304D2F80053E400FF269B00A640BE
:1004A00003F1604325EA060503F561430127A140F6
:1004B00000F01F0007FA00F045EA0104C2F800430B
:1004C000C3F88001F0BC1860704700BFAFF3008034
:1004D00020F0030303F1604303F56D4300F00300D4
:1004E00010B4C0009A69FF24844022EA04028140CB
:1004F0000A439A615DF8044B704700BFAFF3008078
:10050000024B034A9B699A61FEE700BF780900200D
:10051000C0370008AFF30080AFF30080AFF3008076
:1005200000B583B0FFF73CFF00F0DAF800F058F8B0
:1005300000F06EFC00F0A4FC40210B4800F0C8F96C
:100540000A49012288610277002383F3118862B689
:100550008969074888610093E021064B064800F04E
:1005600017FA03B05DF804FB40080020780900206A
:10057000D03700080105000888080020AFF300808C
:1005800070B5134B9B69DA7F0AB1013ADA771A6AC0
:10059000104C01321A62E36822680133A242E36020
:1005A00014D09668013E966086B91168D5682160BE
:1005B000D66000234C6083F311881069A84720237C
:1005C00083F3118822689368002BEED070BD00BFC2
:1005D0007809002068090020AFF30080AFF30080A5
:1005E000044B4FF0FF3100225B601B609960DA60C2
:1005F000704700BF68090020AFF30080AFF30080B0
:1006000070B40C4E3468A5680361A942C26004D975
:100610002468491BA5688D42FAD363684360B442DD
:10062000046060601860816002D0A368591AA160FC
:1006300070BC704768090020AFF30080AFF3008002
:10064000074A0368934203D0996882680A449A6013
:1006500042681360036800215A60C160704700BFA0
:1006600068090020AFF30080AFF30080AFF3008093
:1006700010B4202383F31188037F0D2B11D8DFE8FA
:1006800003F026101007100B101010101010100B94
:10069000436A9A6801329A6090E80C001A60026816
:1006A00053604FF0FF34002381680C4A44620377A3
:1006B000126893688B42FBD251684160026000234C
:1006C0005060086083F311885DF8044B7047002385
:1006D00083F311885DF8044B704700BF7809002050
:1006E000034B00225B601B605B611B619A6070477B
:1006F00078090020AFF30080AFF30080AFF30080F3
:1007000000228168084B10B4044602771B689A687F
:100710008A42FBD25A686260236020465C601460A3
:100720005DF8044B704700BF78090020AFF30080EC
:10073000084B30B41A6899691468087701251420A9
:10074000C877636015771C60104630BC9A61FFF76C
:1007500087BE00BF78090020AFF30080AFF30080B0
:1007600030B54B1C87B0054611D00C4C0C4AA36920
:1007700001A8FFF745FF2846FFF7DAFF049B13B1F6
:1007800001A8FFF75DFFA369586A07B030BD034CAD
:10079000FFF7CEFFA369586A07B030BD7809002083
:1007A00071060008AFF30080AFF30080AFF3008064
:1007B000DFF858C0F0B4DCF818708568BC68416296
:1007C000A54206460DD80022634602771B689A6848
:1007D0009542FBD95A68726033605E601660F0BC67
:1007E000704700233B7763461B689A689442FBD9A5
:1007F0005A687A6001243B605F601760347739463D
:100800003046CCF81860F0BCFFF72ABE780900200B
:100810000E4A1068F0B40368956913600127142626
:100820000021AC685A60077703469061EE7729771C
:1008300000E01B689A68A242FBD25A686A602B608B
:1008400029465D601560F0BCFFF70ABE78090020FC
:100850000D4A106870B40368956913600126002181
:10086000AC685A60067703469061297700E01B6800
:100870009A68A242FBD85A686A602B6029465D607C
:10088000156070BCFFF7ECBD78090020AFF3008065
:10089000044B1A689B6992689B689A4200D870471B
:1008A000FFF7D6BF78090020AFF30080AFF30080D8
:1008B000034B9B69DB7F0BB1FFF7CABFFFF7A8BFF4
:1008C00078090020AFF30080AFF30080AFF3008021
:1008D0002DE9F003114C016465694561002200F1C6
:1008E0002C064FF002094FF0140800F128074FF0D2
:1008F000010C0461816080F81C90606180F81F80A9
:1009000080F81EC04277C2638263026282612861FE
:1009100087620663C662BDE8F0037047780900206D
:100920002DE9F00F184D089FD5F814C0DFF85C8052
:1009300024394618C6604FF0020B43504FF0140A9A
:100940007760002300F12C074FF0010900F1280126
:10095000C6F820800561826080F81CB080F81FA076
:1009600080F81E90C0F814C0026468614377C363C6
:10097000836303628361CCF810000763C7628162FE
:10098000BDE8F00F704700BF78090020710400082F
:100990002DE9F84F1D460446202383F311881C4E91
:1009A000DFF870B0D6F814E024394718C76000F1BA
:1009B0002C03455000F1280C00250A9979604FF06E
:1009C000020A4FF014094FF00108C7F820B0294679
:1009D00082600661C0F814E0026480F81CA080F810
:1009E0001F9080F81E8045777061C563856305623E
:1009F0008561CEF810000363C362C0F828C0FFF71A
:100A0000D7FE2B4683F311882046BDE8F88F00BF40
:100A10007809002071040008AFF30080AFF3008074
:100A200008B50146202383F311880620FFF798FEBE
:100A3000002383F3118808BDAFF30080AFF300807B
:100A400038B50E4B9C692546606255F8280FA842C0
:100A500006D00368A362FFF753FEA06AA842F8D14C
:100A6000637F9B0704D1636922691A61226953611C
:100A70000E20BDE83840FFF75BBE00BF78090020BC
:100A8000202383F31188FFF7DBBF00BFAFF30080A3
:100A90004060006081607047AFF30080AFF300807A
:100AA00083680133002B836000DD704703681A6898
:100AB00002600021506018465962FFF721BE00BF56
:100AC0000023406000608360704700BFAFF3008088
:100AD00008B5826B037F1143082B81630BD0092B70
:100AE00000D008BD436A19408B42FAD1FFF708FED7
:100AF0000023436208BD436A1942F7D108BD00BF15
:100B000070B50468A04205460E4608D0201D0BC8EB
:100B10003343E360FFF7DCFF2468A542F6D170BDE4
:100B200010B4024661B1094B9B69586244680D20BC
:100B300083E81400536023605DF8044BFFF710BE98
:100B40004FF0FF305DF8044B704700BF780900207C
:100B500030B4029C046200250A4485600261406052
:100B6000006041618161C160C36130BC704700BFFA
:100B700038B504460068E36863610022A042A260C1
:100B8000A3610AD06FF00105036823605C60FFF782
:100B9000B7FD45622068A042F6D138BDAFF30080B2
:100BA000034642698069824210B598681BD0541C84
:100BB00001305C619860117059691A6991420BD2D9
:100BC000186898420DD002681A605360FFF798FDCC
:100BD00000234362184610BD1868DA685A619842CB
:100BE000F1D1002010BD0028E1D06FF0030010BD4E
:100BF00070B520230E46044683F31188C3692BB1D8
:100C0000984703E0FFF78CFF002815DBA568204616
:100C10003146002DF6D0A2692169531C8B4205F1A3
:100C2000FF35A361A56028BFE368107828BFA361E2
:100C3000002383F3118870BD2B4683F3118870BDA8
:100C40002DE9F0471E460446D0F81C80202383F38C
:100C500011884FF0000901EB020A4F1CB8F1000F98
:100C600005D02046C04702E0FFF75AFFF0B9A5685B
:100C700020463146002DF7D0A369013D5A1CA261E0
:100C8000A5601B7807F8013C2369A2699A4224BF3A
:100C9000E368A361002383F31188574509F1010933
:100CA00007D0202383F311880137D7E72B4683F33E
:100CB00011884846BDE8F087AFF30080AFF30080AD
:100CC00030B4029C04628D1805614060006082604F
:100CD00041618161C160C36130BC7047AFF3008086
:100CE000F8B504460F461646202383F3118803E027
:100CF000FFF716FF002819DBA56820463146002DB6
:100D0000F6D06369013D5A1C6261A5601F702369BA
:100D100062699A4224BFE3686361E3690BB12046CC
:100D20009847002383F311881846F8BD2B4683F3B8
:100D30001188F8BDAFF30080AFF30080AFF30080FF
:100D400041698269914210B50346816816D01869DD
:100D50004C1C511C9C609961814214780BD218681C
:100D6000984206D002681A605360FFF7C9FC00235E
:100D70004362204610BDDA689A61F0E70029E6D0A8
:100D80006FF0020010BD00BFAFF30080AFF3008032
:100D90002DE9F84F9A4604460E461746D0F81C90A7
:100DA000202383F311884FF00008A56806F1010B9A
:100DB00020466B1EDDB16269A360531C636133780A
:100DC0001370236962699A4224BFE3686361B9F1D1
:100DD000000F00D0C847002383F31188013F08F1BA
:100DE00001080DD0202383F311885E46DDE72046FD
:100DF0005146FFF795FE0028D7D02B4683F3118884
:100E00004046BDE8F88F00BFAFF30080AFF300802D
:100E10000548064A0649074B20F0070022F0070262
:100E200008601A60704700BFCF0E002000C001208C
:100E30009809002094090020AFF30080AFF30080F0
:100E4000202383F31188094A094913680968073088
:100E500020F00700C91A88429BBFC018106000200C
:100E60001846002383F31188704700BF98090020BB
:100E700094090020AFF30080AFF30080AFF300804F
:100E8000044B054A1A6003F1100000229A60DA60F0
:100E9000FFF716BEA0090020410E0008AFF3008046
:100EA00008B500F02DFE0A4801F052F900F038F8BC
:100EB00000F04EF800F074F800F0F2F800F040F99D
:100EC00000F04EF900F034F9BDE8084002F020BA15
:100ED00050390008AFF30080AFF30080AFF300801B
:100EE0000C494A68104482424B680CD29A4203D99A
:100EF0000023002BF7D17047984294BF00230123B1
:100F0000002BF0D1F7E79A42F6D80123002BEAD163
:100F1000F1E700BF001000E0AFF30080AFF3008006
:100F200000F0A6BEAFF30080AFF30080AFF3008007
:100F300000230122027043608360C3600361436148
:100F40001830FFF7BDBD00BFAFF30080AFF30080E6
:100F500001F0DEB8AFF30080AFF30080AFF30080A4
:100F600038B5012300250446037045602946083042
:100F7000FFF78EFD294604F11400FFF789FD04F107
:100F8000200504F1240004F1280104F12C0204F1ED
:100F9000300325626062A162E262236338BD00BF54
:100FA00002F046B8AFF30080AFF30080AFF30080EB
:100FB0000122002302704360704700BFAFF300803E
:100FC00010B52023044683F311888B880381416088
:100FD00002F03EF802232370002383F3118810BD32
:100FE00008B5202383F3118802F0B2F8002383F3BD
:100FF000118808BDAFF30080AFF30080AFF300802D
:1010000008B5202383F3118802F0C2F8002383F38C
:10101000118808BDAFF30080AFF30080AFF300800C
:101020000C30FFF70DBE00BFAFF30080AFF30080C0
:101030000C304FF0FF33FFF703BE00BFAFF300806B
:101040003030FFF7A5BE00BFAFF30080AFF30080E4
:1010500030304FF0FF33FFF79BBE00BFAFF300808F
:101060000C30FFF7C5BD00BFAFF30080AFF30080C9
:101070000C304FF0FF31FFF7BBBD00BFAFF3008076
:101080003030FFF72DBE00BFAFF30080AFF300801C
:1010900030304FF0FF32FFF723BE00BFAFF30080C8
:1010A00002F01EB9AFF30080AFF30080AFF3008011
:1010B00070B50E4B044682B040F8043B0126009404
:1010C0000B461546606004F1540104F10C002672D1
:1010D0001022FFF73DFD00942B4604F1300004F18F
:1010E00064011022FFF7ECFD02B070BDF03700087C
:1010F00038B5436904460D463BB1294604F10C005E
:10110000FFF74EFD00280BDB38BD04300421FFF74C
:10111000F7FC294604F10C00FFF742FD0028F3DA42
:10112000201D8021BDE83840FFF7EABCAFF3008006
:10113000704700BFAFF30080AFF30080AFF30080D3
:1011400001F016BFAFF30080AFF30080AFF3008073
:10115000002301220270436083600C30FFF7B0BCB3
:1011600001F02EBBAFF30080AFF30080AFF300803F
:101170000023012202704360C36183620362C36281
:101180004362036303814381704700BFAFF3008074
:1011900038B50446202383F3118800254160C560DB
:1011A00005614561856101F023FB02222B46227017
:1011B00083F3118838BD00BFAFF30080AFF3008028
:1011C00070B50646506914460D4618B10021142228
:1011D00002F0A6FAA06918B10021142202F0A0FAC8
:1011E00006EB85033046DC602946BDE8704001F01F
:1011F000DFBB00BFAFF30080AFF30080AFF3008030
:1012000010B441890489002224F0010421F0010175
:10121000048102614181426182615DF8044B01F009
:101220007FBC00BFAFF30080AFF30080AFF300805E
:1012300030B400EB81040025E4686469E260636017
:101240002570A56030BC01F013BD00BFAFF3008076
:1012500070B400EB81040126E468A4690025E26013
:1012600063602670A56070BC01F092BCAFF3008093
:1012700070B5448944FA01F313F0010601D001204E
:1012800070BD012303FA01F52C43448101F008FEEF
:10129000304670BDAFF30080AFF30080AFF3008045
:1012A00070B5048944FA01F313F0010601D001205E
:1012B00070BD012303FA01F52C43048101F000FE07
:1012C000304670BDAFF30080AFF30080AFF3008015
:1012D000002202210170A0F84C2080F84E2080F8F6
:1012E0004F2002814281C26002614261826180F8C6
:1012F000342001F0EDBA00BFAFF30080AFF30080FF
:10130000F8B50023044680F8343000F1440201F0BF
:101310002FFC63689B68002B2DD02046984750B364
:10132000E56B94F8443094F84B1094F84A2042EA64
:101330000122AA423CBFE263154613F0800FE36826
:1013400040F08A80002D6ED15B69052284F834203C
:1013500020461D70DD605D609D60294601F088FCBF
:10136000202383F3118820462946FFF799FF2B4657
:1013700083F31188F8BD94F8443013F0600711D05E
:101380002046002101F0C4FD2046002101F0B0FDFF
:1013900063681B6813B1204605219847062384F82B
:1013A0003430F8BD94F8456003F07F0242EA062627
:1013B000B6F5407F00F0038117DDB6F5C06F00F091
:1013C000E5807ADDB6F5106F00F08A8040F60242C3
:1013D000964200F00781B6F5006FD1D104F14F02BB
:1013E00001252764A263E5639DE7022E00F0B78024
:1013F00040F3AC80B6F5807F00F09880B6F5817F31
:10140000BED194F84620002ABAD194F8482012F0B0
:101410000F0160D01206204600F10C8101F088FD1A
:1014200094F8443057E09B69A26B0026042184F8AD
:1014300034102046DA605D601E709E60314601F017
:10144000A7FB202383F3118820463146FFF710FFC6
:10145000334683F31188F8BDC5B15B69A26B0026E2
:10146000012184F834102046DA605D601E709E60B1
:10147000314601F0FDFB202383F3118820463146DD
:10148000FFF70EFF334683F31188F8BD9B690322F3
:1014900084F8342020461D70DD605D609D60294623
:1014A00001F076FB202383F3118820462946FFF7BD
:1014B000DFFE2B4683F31188F8BD40F202329642DC
:1014C00021D0B6F5A06F7FF45BAFB4F84420B2F53D
:1014D000A06F00F09D800025A563E563256422E7E9
:1014E00094F8462084F84F20002A40F0828003229E
:1014F000227062681268002AEDD0204602219047CF
:1015000094F84430E7E794F84620002A7FF438AF97
:1015100094F8482012F00F01DDD01306204600F1A8
:101520008E8001F0E5FC94F84430D4E794F846202E
:10153000012A7FF425AFB4F84C20A76322F0020201
:10154000E76327643D46A4F84C20ECE6002E46D124
:1015500004F14C0202252664A263E563E3E694F8F5
:10156000481011F0800F204601F00F0144D101F026
:10157000DFFA012844D002287FF402AF324BA36384
:10158000E0632764054694F84430CCE6626894F83A
:10159000490094F84830556894F8471094F846206C
:1015A00043EA00232046A84700283FF4E9AE4368F9
:1015B0000568E563A363276494F84430B3E694F8C0
:1015C0004620012A7FF4DCAEB4F84C20A76342F039
:1015D0000202E76327643D46A4F84C20A3E6012EEF
:1015E0007FF4CEAE194AA26302250022E56322648D
:1015F00099E6042222707CE701F0AAFA0128BAD108
:10160000134BA363E6632764354694F844308AE6B7
:1016100094F8463084F84E30204601F0B9F96368FA
:101620001B6813B1204601219847032294F84430E7
:10163000227050E701F08CFC94F844304BE701F045
:1016400067FC94F8443046E720380008103800085A
:1016500030380008AFF30080AFF30080AFF30080B4
:1016600038B590F83430022B044643D0052B3AD0DD
:10167000012B10D0002101F04BFC2046002101F08D
:1016800037FC63681B6813B1204605219847062381
:1016900084F8343038BD90F84B2090F84A30C56B50
:1016A00043EA0223AB42C26805D9138AB5FBF3F1C2
:1016B00003FB115505B393690025032284F83420F8
:1016C00029461D70DD605D609D60204601F060FA76
:1016D000202383F3118820462946FFF7C9FD2B46B6
:1016E00083F3118838BD036C03B19847002384F855
:1016F000343038BDC268DEE7536929461D70DD60AD
:101700005D609D6001F0B4FA202383F311882046C8
:101710002946FFF7C5FD2B4683F31188022384F881
:10172000343038BDAFF30080AFF30080AFF30080FA
:1017300038B590F83430032B04462BD0042B11D04D
:101740002046002101F0E4FB2046002101F0D0FBFF
:1017500063681B6813B1204605219847062384F867
:10176000343038BDC3685B690025052280F8342019
:1017700029461D70DD605D609D6001F079FA2023CF
:1017800083F3118820462946FFF78AFD2B4683F311
:10179000118838BDC3689B699B68002BD0D1036C4E
:1017A00003B19847002384F8343038BDAFF300808C
:1017B00008B5074B074A196801F03D0199601368A5
:1017C0000BB150689847BDE80840FEF701BE00BF66
:1017D00000600240C0090020AFF30080AFF300803A
:1017E000084B094819688268890901F03D0110B564
:1017F0008C019C600AB1C0689047BDE81040FEF7BC
:10180000E7BD00BF00600240C0090020AFF30080C8
:10181000084B094819680269090C01F03D0110B52F
:101820000C049C600AB140699047BDE81040FEF787
:10183000CFBD00BF00600240C0090020AFF30080B0
:10184000084B094819688269890D01F03D0110B5FE
:101850008C059C600AB1C0699047BDE81040FEF756
:10186000B7BD00BF00600240C0090020AFF3008098
:1018700008B5074B07485968026A01F03D01D96075
:101880000AB1406A9047BDE80840FEF7A1BD00BF1D
:1018900000600240C0090020AFF30080AFF3008079
:1018A000084B09485968826A890901F03D0110B561
:1018B0008C01DC600AB1C06A9047BDE81040FEF7B9
:1018C00087BD00BF00600240C0090020AFF3008068
:1018D000084B09485968026B090C01F03D0110B52D
:1018E0000C04DC600AB1406B9047BDE81040FEF785
:1018F0006FBD00BF00600240C0090020AFF3008050
:10190000084B09485968826B890D01F03D0110B5FB
:101910008C05DC600AB1C06B9047BDE81040FEF753
:1019200057BD00BF00600240C0090020AFF3008037
:1019300008B5074B07481968026C01F03D01996032
:101940000AB1406C9047BDE80840FEF741BD00BFBA
:1019500000640240C0090020AFF30080AFF30080B4
:10196000084B09481968826C890901F03D0110B5DE
:101970008C019C600AB1C06C9047BDE81040FEF736
:1019800027BD00BF00640240C0090020AFF3008003
:10199000084B09481968026D090C01F03D0110B5AA
:1019A0000C049C600AB1406D9047BDE81040FEF702
:1019B0000FBD00BF00640240C0090020AFF30080EB
:1019C000084B09481968826D890D01F03D0110B579
:1019D0008C059C600AB1C06D9047BDE81040FEF7D1
:1019E000F7BC00BF00640240C0090020AFF30080D4
:1019F00008B5074B07485968026E01F03D01D960F0
:101A00000AB1406E9047BDE80840FEF7E1BC00BF58
:101A100000640240C0090020AFF30080AFF30080F3
:101A2000084B09485968826E890901F03D0110B5DB
:101A30008C01DC600AB1C06E9047BDE81040FEF733
:101A4000C7BC00BF00640240C0090020AFF30080A3
:101A5000084B09485968026F090C01F03D0110B5A7
:101A60000C04DC600AB1406F9047BDE81040FEF7FF
:101A7000AFBC00BF00640240C0090020AFF300808B
:101A8000084B09485968826F890D01F03D0110B576
:101A90008C05DC600AB1C06F9047BDE81040FEF7CE
:101AA00097BC00BF00640240C0090020AFF3008073
:101AB0000C4B30B400220C4D0C4C1A6011461346EE
:101AC000E8580C33C02B0160A15002F10802F7D195
:101AD0000749084A4FF0FF338B6030BCCB609360FE
:101AE000D3607047400A002040380008C009002039
:101AF0000060024000640240AFF30080AFF300805A
:101B0000214B22491A69DFF894C000224FF0FF30C0
:101B10002DE9F00118611A615F6958615A611F6A05
:101B20001B4E1C4D1C4C67F080571F621A62072722
:101B3000D3F8248058625A62C1F804C08A600F60EA
:101B4000F16841F08071F160296841F0010129607C
:101B5000196C41F080511964216841F48071216051
:101B6000196F01F44071B1F5007F03D04FF480315B
:101B700019671A67084B5A6822F400725A60BDE868
:101B8000F001FFF795BF00BF0038024010E000E011
:101B9000F0ED00E0001000E0007000403F90020017
:101BA0002B492C4B4FF080504FF4404208641A6090
:101BB0000B6843F001030B600B68254A9807FBD5BF
:101BC0001168002301F0F9011160114693608B68E0
:101BD0001F4A13F00C0FFAD1136843F480331360DB
:101BE00011460B681A4A9B03FBD5536F43F0010360
:101BF000536711464B6F164A9807FBD5164B536037
:101C00001368144943F0807313604B685A04FCD581
:101C10000F490B680E4A9B01FBD5104B1049916090
:101C200040F205711960936843F002039360114616
:101C30008B68074A03F00C03082BF9D1536C43F46B
:101C400080435364536E43F480435366704700BF30
:101C5000003802400070004008544007003C024039
:101C600000940838AFF30080AFF30080AFF300803A
:101C700010B5084C2046FFF75BF90749074A084BA7
:101C8000A162E262236312206021BDE81040FEF7EA
:101C9000F7BB00BF440A002000200140D0380008F4
:101CA000162C0200AFF30080AFF30080AFF300808A
:101CB000C16A0A68136823F01F0310B41360136825
:101CC00013F00103FBD10C7A826A48683D2101FAC6
:101CD00004F40121046053605DF8044B936091604B
:101CE000704700BFAFF30080AFF30080AFF3008018
:101CF000194B1A68002110B51960930627D5174CA7
:101D0000E36A1B685B6813B3236903B32046FFF7DC
:101D1000CFFF23699B684BB1052222702046012129
:101D200098472378052B04BF0223237000222261E9
:101D30000A49202383F31188606928B14FF0FF33EB
:101D400043624A61FEF7DCFC002383F31188BDE89F
:101D50001040FEF73DBB00BF00200140440A0020B8
:101D6000F0B4444C444B256C45F000752564D3F821
:101D70000042240C240444F0010444EA0024C3F883
:101D8000004200295BD00025C3F81C522846C3F846
:101D900004522C46C3F80C52C3F81452C30003F18A
:101DA000804303F5C84301301C28C3F84042C3F800
:101DB0004442F3D1304B0026012715681479E8001E
:101DC00000F1804014F0010F00F5C84006F1010653
:101DD00007FA05F505D0D3F804422C43C3F80442B2
:101DE000147914F0020F05D0D3F80C422C43C3F839
:101DF0000C421479640704D5D3F814422C43C3F879
:101E000014429468C0F84042D468C0F84442D3F801
:101E10001C028E4245EA000502F11002C3F81C5272
:101E2000CBD1154A134BD2F8001221F00101C2F8B0
:101E300000121A6C22F000721A64F0BC7047C200E3
:101E4000012402F1804202F5C84204FA00F0204366
:101E5000C3F84012C3F84412C2F84012C2F8441248
:101E6000C3F80412C3F81412C3F80C02C3F81C021E
:101E7000D7E700BF0038024000640040AFF30080A5
:101E8000426B0E4938B504462023916083F31188D4
:101E90000369002BB8BF00F1080505DA2846FEF7F4
:101EA000FFFD2369002BF9DB04F124000121FEF77B
:101EB00027FE002383F3118838BD00BF0101010014
:101EC000436B70B5DE68B20704461AD05A6922F037
:101ED00002025A61202383F31188C369002BB8BF23
:101EE00000F1140505DA2846FEF7DAFDE369002B58
:101EF000F9DB04F120000121FEF702FE002383F349
:101F00001188F3060CD5636B1021D960202383F36D
:101F1000118804F12800FEF7F3FD002383F31188F4
:101F200070BD00BFAFF30080AFF30080AFF300805F
:101F3000436B70B51E69B20704461AD05A6922F085
:101F400010025A61202383F31188C369002BB8BFA4
:101F500000F1140505DA2846FEF7A2FDE369002B1F
:101F6000F9DB04F120000221FEF7CAFD002383F310
:101F70001188F3060CD5636B10211961202383F3BC
:101F8000118804F12800FEF7BBFD002383F31188BC
:101F900070BD00BFAFF30080AFF30080AFF30080EF
:101FA000426B38B555681C232907044653601BD47F
:101FB0006B0718D5636B9A69996921F07001996173
:101FC00012F0700F02F0070118BF41F00801202342
:101FD00083F3118804F1280041EA0241FEF790FDE5
:101FE000002383F3118838BD1168032321F0020117
:101FF00000F8303B2023116083F311880021FEF7A5
:102000007FFD002383F31188D2E700BFAFF3008088
:1020100008B50348FFF734FFBDE80840FEF7D8B91C
:10202000780A0020AFF30080AFF30080AFF30080A8
:1020300008B50348FFF744FFBDE80840FEF7C8B9FC
:10204000780A0020AFF30080AFF30080AFF3008088
:1020500008B50348FFF76CFFBDE80840FEF7B8B9C4
:10206000780A0020AFF30080AFF30080AFF3008068
:1020700008B50348FFF794FFBDE80840FEF7A8B98C
:10208000780A0020AFF30080AFF30080AFF3008048
:1020900008B50348FFF7F4FEBDE80840FEF798B91D
:1020A000B00A0020AFF30080AFF30080AFF30080F0
:1020B00008B50348FFF704FFBDE80840FEF788B9FC
:1020C000B00A0020AFF30080AFF30080AFF30080D0
:1020D00008B50348FFF72CFFBDE80840FEF778B9C4
:1020E000B00A0020AFF30080AFF30080AFF30080B0
:1020F00008B50348FFF754FFBDE80840FEF768B98C
:10210000B00A0020AFF30080AFF30080AFF300808F
:1021100038B5094D094C2846FEF722FF084B6B6382
:102120002046FEF71DFF074B636300210A460E2081
:10213000BDE83840FFF714BE780A0020B00A00203E
:102140000064004000680040AFF30080AFF30080FF
:102150002DE9F00FDFF8AC91DFF8AC81D9F830B0A1
:10216000DFF8A8C1604F614E614D624C6249634A1D
:1021700040F2FF1A4BEA0A0BC9F830B0D9F850B058
:102180004BEA0A0AC9F850A04368C8F804308368CB
:10219000C8F80830C368C8F80C300369C8F81430B0
:1021A0004369C8F820308369C8F824300368C8F848
:1021B0000030036ACCF80430436ACCF80830836AF4
:1021C000CCF80C30C36ACCF81430036BCCF8203058
:1021D000436BCCF82430C369CCF80030C36B7B6010
:1021E000036CBB60436CFB60836C7B61C36C3B62C4
:1021F000036D7B62836B3B60876D7760C76DB760F3
:10220000076EF760476E7761876E3762C76E7762D9
:10221000476D3760466F6E60866FAE60C66FEE606A
:10222000D0F880606E61D0F884602E62D0F888604B
:102230006E62066F2E60D0F890506560D0F89450B2
:10224000A560D0F89850E560D0F89C506561D0F852
:10225000A0502562D0F8A4506562D0F88C5025605B
:10226000D0F8AC404C60D0F8B0408C60D0F8B440AE
:10227000CC60D0F8B8404C61D0F8BC400C62D0F8CB
:10228000C0404C62D0F8A8400C60D0F8C810516033
:10229000D0F8CC109160D0F8D010D160D0F8D41024
:1022A0005161D0F8D8101162D0F8DC105162D0F82A
:1022B000C4101160124BD0F8E4205A60D0F8E82026
:1022C0009A60D0F8EC20DA60D0F8F0205A61D0F8AB
:1022D000F4201A62D0F8F8205A62D0F8E0201A6090
:1022E000BDE8F00F704700BF00080240000C02403C
:1022F000001002400014024000180240001C02407E
:102300000020024000380240000002400004024069
:102310002DE9F00F002302F00307C2F38006C2F399
:10232000C105C2F341144FF00F09C2F3C3124FF0BD
:10233000010A38E0D0F820B02BEA0C0C4CEA08086F
:10234000C0F82080D0F804C00AFA03F82CEA080C80
:102350004CEA060CC0F804C04FF0030B4FEA430CE4
:10236000D0F808800BFA0CFC6FEA0C0C0CEA080899
:1023700048EA0508C0F80880D0F80C800CEA080884
:1023800048EA0408C0F80C80D0F800800CEA080C79
:102390004CEA070CC0F800C049081AD07600AD001E
:1023A000A400BF00013303F0070C4FEA8C0C11F0BE
:1023B000010F02FA0CF809FA0CFCEDD0072BB9D981
:1023C000D0F824B02BEA0C0C4CEA0808C0F82480A2
:1023D000B8E7BDE8F00F7047AFF30080AFF30080BF
:1023E0002DE9F04FAF4BB0499A69D0F85090916108
:1023F00085B08346202383F3118800264F469BF83F
:102400000030012B05D0DBF85C306BB97B69DB0653
:102410000AD4BA69A34C42F01002A369BA6102203F
:10242000CBF86430FEF784F9002383F311889A46D1
:102430007B6913F0100223D0DBF85000056A05F425
:10244000F013B3F5802F30D0B3F5402FF0D105F065
:102450000F030BEB8303C5F30A15DA68EB1C9B082B
:10246000146AE5D000F580500222016812B144F8E8
:10247000041B013A013BF8D17B6913F01002DBD158
:102480000121DBF85C3001FA0AF11942019178D19F
:102490000AF1010ADBF854309B685FFA8AFA9A4520
:1024A000C6D9202383F31188A9E705F00F080BEBA9
:1024B0008808C5F30A15D8F80C3099690B78EBB980
:1024C0000A1D92E80C400332D21AEB1C9B084FEA1B
:1024D000920209D000F58050F446046812B14CF81D
:1024E000044B013A013BF8D10EEB0504CC60D8F85F
:1024F0000C309B699A6815449D6099E7CC6845B398
:10250000626900F58050AE46BEF1030F07D923691A
:102510009A4204D3E2686261BEF1030FF7D8D0F8A3
:1025200000C0002302F101092CFA03F1C4F8149051
:10253000117022696169914224BFE2686261BEF153
:10254000010E06D0182B02D008336269EAE76269EF
:10255000DAE7202383F31188A36820682B44A04284
:10256000A36008D0036823605C60FEF7C9F8466288
:102570002068A042F6D1FEF78BF9002383F311887F
:10258000B5E7202383F31188DBF85C30B868019D40
:1025900020F0010023EA0501B8601346CBF85C1077
:1025A00083F311880BEB8A0CDCF80C4060698368BC
:1025B00041688B4280F0BC80DBF85020248A4FEACF
:1025C0004A1500951544C91AD5F81839A14234BFE7
:1025D0000D4625469BB2B5EB830F0AF1010A2ED8B2
:1025E000039767460378002B3CD1EB1CC4689B081B
:1025F00002EB0A3E18BF224605D052F8041BCEF863
:102600000010013BF9D12C44C460FC686069836808
:1026100041682B449942836040F28780DBF8502068
:10262000DDF800E0248A9644CD1ADEF81839A54278
:1026300028BF25469BB2B5EB830FD3D9039F002259
:10264000202383F31188BB6843F00103BB602AB9E0
:10265000D7F8343801990B43C7F83438002383F393
:10266000118817E702EB0A3EC46825B3D4F810803E
:1026700002952A46910836D1A36900218C46581C40
:10268000A0611B78804503FA01F34CEA030C9CBF60
:10269000E368A361013A09D0182907D00831A3697A
:1026A000EDE700BF7809002010390008CEF800C01F
:1026B000002ADFD1029D202383F31188A3682068BC
:1026C0002B44A042A36008D0036823605C60FEF73F
:1026D00017F846622068A042F6D1FEF7D9F8002329
:1026E00083F3118891E7A569B8EB050348BF03336D
:1026F0009B10994238BF0B464FEA8309C9EB02028F
:102700003BB1294651F8040BCEF80000013BF9D14A
:102710004D444545A56104D3E368A361002AA9D1CE
:10272000C8E7002AC6D02B46A7E7039F012287E708
:102730000AF1010AFAE700BFAFF30080AFF30080AF
:10274000D1F808C000212DE9F0010D464FF0804876
:102750004FF0FF3714E0C2F800590319C3F81059BD
:10276000C3F80879D2F8006B002E17DBC2F8005BC3
:10277000044401316145C4F8105BC4F8087B15D8E6
:102780004C010219D2F80039002BE4DAC2F80089B2
:102790001646D6F808399B07FBD5DEE7C2F8008B52
:1027A0001A46D2F8083BDB06FBD5E1E74FF00113F0
:1027B000C0F81C38BDE8F001704700BFAFF30080DF
:1027C00010B5064C2046FEF7D3FC4FF0A043044A58
:1027D0002365002362652366636610BDE80A002056
:1027E00000390008AFF30080AFF30080AFF3008042
:1027F00070B50378066D012B82B0054601D002B09A
:1028000070BD2E4B984249D02B6E0022EA65002BFA
:1028100038D02B4BF3602B49C6F800184FF45023E7
:102820000022C6F8002EB3632C6D2020FEF758FB63
:10283000012323612369DB07FCD40C20FEF750FB46
:102840002369002BFCDA0024B460286D696DFFF762
:1028500077FF6B68C6F81048DB68C6F81448C6F8FE
:102860001C485BB143F20803B3614FF0FF3373615F
:10287000B36843F00103B36002B070BD4FF440533E
:10288000B361F2E7009505F168004FF4A8710222E8
:102890000D4BFEF745F868662866BAE70B4B5A6B96
:1028A00042F080025A635969002241F08001596167
:1028B00043205A61E021FDF7E3FDA5E7E80A002087
:1028C0004014004003002002E123000800380240C9
:1028D000F8B5046D202307462361226912F0200514
:1028E000FBD10C20FEF7FCFA7B6D9E682A46FF2187
:1028F0004FF0006504EB42130132B242C3F80059B5
:10290000C3F8005BC3F80819C3F8081BF2D94FF0ED
:10291000FF324FF00113C4F81828C4F81C387B6D3F
:102920001A68BA651B6863623A6D102313611369F4
:1029300013F01005FBD10C20FEF7D2FAD4F80038C2
:10294000104A114823F4FE63C4F80038A36943F425
:10295000402343F010030921A361C4F81018C4F800
:102960001418F860C4F8105BC4F8002BC4F81059B0
:10297000C4F80029BB6D03F1100243F48013BA655B
:10298000A362F8BD4080001020390008AFF300803A
:10299000036D90F84E10D3F8002822F4FE6242EA4C
:1029A0000112C3F800287047AFF30080AFF3008036
:1029B0002DE9F0410FFA81F800EB88060D46F36827
:1029C000046D1A6802F00302022A5ED0032A5ED068
:1029D0004C4F4D49012A18BF0F46690104EB010E07
:1029E000DA684FF0000CCEF810CB002A75D0B3F89F
:1029F00012E005F15802520147EA0E0E44F802E0D7
:102A00004FF0010CD4F81C2805F1100E0CFA0EFE44
:102A10004EEA0202C4F81C2821449A684FF0000EC6
:102A2000C1F810E9002A34D09A8B198A012A4FEA9A
:102A3000910388BF534305F13F01826D04EB81018F
:102A400003EB020E42EA0343C0F858E04B60026D0C
:102A5000AB0143F02003136113699906FCD40C20E9
:102A6000FEF73EFAF3681A8A05F1480342EA8552F6
:102A70005B011743E7500122D4F81C3802FA05F530
:102A80001D43C4F81C58BDE8F081204FA5E7204F36
:102A9000A3E705F13F0304EB83031E4A5A60026D6E
:102AA000AB0143F02003136113699B06FCD404EBD4
:102AB00048180C20FEF714FAD8F8003923F4004324
:102AC000C8F80039D4F81C38012202FA05F523EAC7
:102AD0000503C4F81C38BDE8F08104EB481205F189
:102AE000100ED2F800CB2CF4004CC2F800CBD4F876
:102AF0001C284FF0010C0CFA0EFE22EA0E02C4F85C
:102B00001C2889E700800410008000100080081055
:102B100000800C1000040002AFF30080AFF30080CF
:102B2000416D03460A68006D9A65FFF709BE00BF54
:102B30005831036D49015B5813F4004004D013F47D
:102B4000001F0CBF02200120704700BFAFF30080C0
:102B50004831036D49015B5813F4004004D013F46D
:102B6000001F0CBF02200120704700BFAFF30080A0
:102B700000EB8101CB681B6A19685B6853601160C8
:102B8000704700BFAFF30080AFF30080AFF3008069
:102B900000EB810330B4DC68A2695368136131B97A
:102BA000402B04D940255560094B3F2502E05D1EAE
:102BB00043F0C043628A006DAC18B4FBF2F200EB44
:102BC000411143EAC242C1F8102B30BC704700BF2C
:102BD00040000060AFF30080AFF30080AFF30080EF
:102BE000F8B5076D07EB41130546D3F8084BC3F85A
:102BF000084B22070E4603D5D7F814381B0718D404
:102C0000E20715D5D7F81438DB0711D505EB860395
:102C1000DB689A6951681069814210D36989DB6861
:102C20000122B24021EA02026A81314628469847D1
:102C3000F8BD00EB8103DB685B689847E0E7411A69
:102C400000245160946028463146FFF7A1FF2023FD
:102C500083F311882B6D03EB46162346D6F8002B21
:102C600042F08062C6F8002B83F31188F8BD00BFE4
:102C700000EB810330B4DC68626953681361A3B16F
:102C800069B15D1E228A006DAC18B4FBF2F200EB54
:102C9000411143EAC243C1F8103930BC7047402BA0
:102CA000EFD9402353603F25ECE7036D03EB41115F
:102CB0004FF40023C1F8103930BC7047AFF30080E7
:102CC0002DE9F041066D06EB41130446D3F808598F
:102CD000C3F80859EB070F4603D5D6F81038DA07C2
:102CE0001FD42B061BD50122D6F8343802FA07F779
:102CF0001F4214D0202383F31188E36DD6F83428C3
:102D0000606E3B4322EA0707E365C6F8347818B1E2
:102D1000FDF7F6FC00236366002383F31188BDE80A
:102D2000F08100EB8103DB685A69D2F804E0D2F845
:102D300010C0E6451FD2CEEB0C034FF000085360E5
:102D4000C2F80880FFF794FF202383F31188226DD7
:102D500002EB47130121D3F8000940F00440C3F807
:102D60000009D2F83438B9401943C2F83418434640
:102D700083F31188B5E7B0F808E09B6801228A4028
:102D80002EEA020202819847ABE700BFAFF3008052
:102D900070B53F4E356D6B69AC691C40E0046C61E9
:102DA0003FD4A10448BFD5F80838220704D573687A
:102DB000DB680BB136489847E30610D5202383F330
:102DC0001188AB69706E324E23F01003AB6118B1FD
:102DD000FDF796FC00237366002383F311886003DC
:102DE000D5F8185807D5E9073AD4AA073ED46B0797
:102DF00042D42E0746D4240307D5E80323D4A903DD
:102E000027D46A0318D42B0303D4BDE87040FDF720
:102E1000DFBA1F480321FFF7E3FEBDE87040FDF76E
:102E2000D7BA3046FEF754FA73681B68002BB8D047
:102E3000304600219847B4E715480221FFF7D0FE3D
:102E40002B03E2D5E5E700211148FFF7C9FEA903EE
:102E5000D7D50F480121FFF7C3FE6A03D3D5EBE7AF
:102E60000B480021FFF72CFFAA07C0D50848012115
:102E7000FFF726FF6B07BCD505480221FFF720FFAF
:102E80002E07B8D502480321FFF71AFFB3E700BFAA
:102E9000E80A0020AFF30080AFF30080AFF30080BA
:102EA000036D03EB4111D1F8003B43F08063C1F89F
:102EB000003B7047AFF30080AFF30080AFF30080BA
:102EC000036D03EB411210B4D2F8004944F00444FE
:102ED000C2F80049D3F834285DF8044B012000FA09
:102EE00001F11143C3F83418704700BFAFF30080FD
:102EF000036D03EB4111D1F8003B43F40013C1F81B
:102F0000003B7047AFF30080AFF30080AFF3008069
:102F1000036D03EB4111D1F8003943F40013C1F8FC
:102F200000397047AFF30080AFF30080AFF300804B
:102F3000036D03EB4111D1F8003B23F40013C1F8FA
:102F4000003B7047AFF30080AFF30080AFF3008029
:102F5000036D03EB4111D1F8003923F40013C1F8DC
:102F600000397047AFF30080AFF30080AFF300800B
:102F700010B50A4C0A4B4FF6FF7220461A80FEF736
:102F8000E7F8084B08480949094AE06103F12400C1
:102F900023626062A162E26210BD00BFC00C00202B
:102FA000BC0C0020A03800080030014016000106CB
:102FB00046000106AFF30080AFF30080AFF300805E
:102FC00038B5174D2B691A69DC681440A4B2E2B217
:102FD000D2431A61A3071ED4600717D4210710D467
:102FE000E20609D4E30703D56B680D489B68984750
:102FF000BDE83840FDF7ECB96B6809489B6A984713
:10300000F0E76B6806481B6A9847E9E76B68044875
:103010009B699847E2E76B6828461B699847DBE79E
:10302000F00C0020AFF30080AFF30080AFF300801E
:1030300010B5034C2046FDF7BBFF024B236110BDCA
:10304000F00C002000080040AFF30080AFF30080D8
:103050000378012B70B5044652D0036900221A6030
:103060005A639A63DA631A645A626268E66810689F
:103070002589D168D46AB6FBF0F00138013D01F032
:103080000F0180B2ADB201299862DD625C6003D0AD
:1030900002290CBF03210021506900F00F00012814
:1030A0002BD0022827D0D06900F00F0001281FD0B4
:1030B00002281BD0506A00F00F00012803D002281C
:1030C00003D141F4005141F48051106B92681962B0
:1030D00020F0FF01002A18BF41F001010124002067
:1030E00085225C611861D9601A6070BD41F400717D
:1030F00041F48071DEE741F0200141F01001D2E798
:103100000D4B984205D0236946F668029A61DA6150
:10311000ABE70A4B1A6C42F004021A64196A0022E7
:1031200041F0040119621E201A627021FDF7A8F90E
:10313000034BE360E7E700BFF00C002000380240DB
:1031400000BD0105AFF30080AFF30080AFF3008056
:1031500010B44468036904EBC10001F10C04006978
:1031600003EB8404626048B10220DA6800FA01F1DE
:10317000114203D10A43C943DA6019615DF8044B77
:10318000704700BFAFF30080AFF30080AFF3008063
:10319000036901F10C0203EB820200205060DA683F
:1031A000022000FA01F122EA0101D960704700BF54
:1031B000034B9A8992B242F080029A81704700BF15
:1031C00000440040AFF30080AFF30080AFF3008015
:1031D000F8B53E4E756FAF892C88A4B2E005BFB23A
:1031E00045D4202383F31188A10621D508E0A988BE
:1031F0003648C9B2FDF77CFF2C88A4B2A00617D5CB
:103200002207F4D014F0080F14BF8021002114F01D
:10321000010F18BF41F02001A30748BF41F0400152
:1032200064072B4848BF41F48071FDF769FCDEE775
:10323000002383F31188390601D5220626D46306BC
:1032400011D5202383F31188726CB36C1F489A4206
:103250002AD027F04007BFB24FF6BF72AF810023DC
:103260002A8083F31188BDE8F840FDF7B1B8202328
:1032700083F311884FF40071301DFDF741FC0023EA
:1032800083F311884FF6FF632B80AAE7202383F393
:1032900011881048FDF754FD00280DDB80B2A8808E
:1032A000002383F31188CAE7836B002BD1D004304D
:1032B0001021FDF725FCCCE705480821FDF720FC8F
:1032C00027F0C00343F04003AB81E9E7040D002081
:1032D000080D0020340D0020AFF30080AFF3008014
:1032E00010B5044C044A20460021FDF7E1FE034BD3
:1032F000636710BD040D0020B13100080044004098
:10330000FEF74EBCAFF30080AFF30080AFF3008058
:10331000704700BFAFF30080AFF30080AFF30080D1
:10332000704700BFAFF30080AFF30080AFF30080C1
:103330000139212920D8DFE801F01D11131F1F1FBB
:103340001F1F1F1F1F1F1F1F1F1F1F1F1F1F1F1F8D
:103350001F1F1F1F1F1F1F1F1F1F191B07487047FD
:10336000042A09D8064800EBC20070470548704798
:10337000054870470548704700207047E03A00084C
:10338000103B0008703B0008D03A0008803A000863
:1033900008B5202383F311880F4A1069D168936818
:1033A000411ACB1A3F2B0ED9002383F311880B4807
:1033B00001214023FDF74CFF202383F311880748A8
:1033C0000121FDF755FF002383F31188044B5A694F
:1033D00082F480525A6108BD240E0020E80A0020C1
:1033E000000C0240AFF30080AFF30080AFF3008029
:1033F00070B5B0F8442040F281639A42044601D08F
:10340000002070BD426890F8496090F848305568D7
:1034100090F8471090F8462043EA0623A847002872
:10342000EFD042680368A2630022E36322640120B4
:1034300070BD00BFAFF30080AFF30080AFF300803A
:10344000022908B519D1202383F3118890F84F3051
:10345000A3B101210B4AFDF7B3FE0B48FDF788FB32
:103460000A48094A01214023FDF7F2FE07480121DD
:10347000FDF7FEFE002383F3118808BDFDF7C0FEB3
:10348000F8E700BF503A0008240E0020E80A0020A8
:1034900010B50F4C2378042B00D010BD0D4A1069D5
:1034A000D1689368411ACB1A3F2BF6D9002383F3D6
:1034B0001188012120464023FDF7CAFE202383F313
:1034C000118801212046BDE81040FDF7D1BE00BFA4
:1034D000E80A0020240E0020AFF30080AFF3008044
:1034E00010B40C4613460146224602485DF8044BD0
:1034F000FDF7A6BB240E0020AFF30080AFF30080E1
:1035000038B5202383F311880B4C2578042D04D083
:10351000002383F31188184638BD02460B46204627
:103520000121FDF785FE20460121FDF7B9FE0023AC
:1035300083F31188404238BDE80A0020AFF30080D1
:1035400010B582B00E4C0F490F4800230093802223
:103550000E4BFDF7FDFA236D9A6B22F400229A635D
:103560004FF47A70FDF75CFA20460949FDF710FE2A
:10357000236D9A6B42F400229A6302B010BD00BF23
:10358000E80A0020A40D0020240E00209134000839
:10359000403B0008AFF30080AFF30080AFF3008042
:1035A00070B50E4C054605EB8505204605EB8505F7
:1035B0000E46FDF725FD2189094AAB009BB203FBAE
:1035C00001F382FB0312DB17C3EB223231462046A4
:1035D00092B2BDE87040FDF703BD00BFF00C0020C3
:1035E000AD8BDB68AFF30080AFF30080AFF30080FA
:1035F00038B50446084600211546FFF7D1FF20469E
:103600000221FFF7CDFF28460321BDE83840FFF730
:10361000C7BF00BFAFF30080AFF30080AFF30080FF
:1036200010B5074C00212046FDF7EAFC2046022198
:10363000FDF7E6FC20460321BDE81040FDF7E0BCA5
:10364000F00C0020AFF30080AFF30080AFF30080F8
:1036500038B50F4C0F4D20460021FDF7D1FCAA884C
:1036600020460021FDF7BCFC20460221FDF7C8FCE6
:10367000AA8820460221FDF7B3FC20460321FDF76E
:10368000BFFC2046AA880321BDE83840FDF7A8BC4E
:10369000F00C002008080020AFF30080AFF300809A
:1036A0000278012A034609D006D3022A04D1808871
:1036B00019899A89FFF79CBFFFF7B2BFFFF7C8BF10
:1036C000024638B50E484021FFF70AFF002815DDF5
:1036D0000B4D0B480B4CFFF7E3FF0FCD0FC40FCD85
:1036E0000FC40FCD0FC495E80F0084E80F00A4F1BC
:1036F00030004021BDE83840FFF702BF38BD00BFB1
:10370000480E0020880E0020AFF30080AFF3008049
:10371000704700BFAFF30080AFF30080AFF30080CD
:10372000F0B4840743D0541E002A3ED0CDB20346E5
:1037300003E0621E002C38D0144603F8015B9A07A0
:10374000F7D1032C2AD9CDB245EA05250F2C45EA3D
:10375000054515D9A4F110073F0903F1100606EB42
:1037600007161A46156055609560D5601032B24252
:10377000F8D104F00F040137032C03EB07130DD924
:103780001E462246043A032A46F8045BFAD8221F52
:1037900022F003020432134404F003042CB1C9B232
:1037A0001C4403F8011BA342FBD1F0BC7047144634
:1037B0000346C6E700000000000000000000000013
:1037C00069646C650000000000000000000000005B
:1037D0006D61696E00168611040448080C101418F7
:1037E000001C1D1E1F200000000000000000000043
:1037F00051100008311000089110000871100008E5
:103800008110000861100008411000082110000814
:1038100000000000000000000000000000000000A8
:103820000000000000000000000000000000000098
:103830000100000000000000000000000000000087
:10384000106002400860024000000B002860024047
:103850000860024006010C0040600240086002401F
:1038600010020D00586002400860024016030E006E
:10387000706002400C60024000040F00886002404B
:103880000C60024006051000A06002400C6002407F
:1038900010061100B86002400C60024016072F00AD
:1038A00010640240086402400008380028640240A6
:1038B000086402400609390040640240086402407E
:1038C000100A3A005864024008640240160B3B009C
:1038D000706402400C640240000C3C0088640240AA
:1038E0000C640240060D4400A06402400C640240D7
:1038F000100E4500B86402400C640240160F4600EA
:1039000080000000400100000300000000000000F3
:103910007573625F6C6C645F70756D7000000000A1
:1039200000000000011300086116000831170008AC
:1039300040004000A00C0020A00C0020010000006E
:10394000B40C002000000000000000000000000097
:1039500000AAA02A00000000FFABFFFF54000140B6
:10396000FFFF00000000565500AA0A008020080052
:1039700040020000FFFFFFFF15455155FFFF00000B
:103980000000000440000000018020020000000050
:10399000FFFFFFFF54154554FFFF000000000060CB
:1039A000000606000001005500000000FFFFFFFFB9
:1039B00055505500FF0F00000000000000000000FF
:1039C0004000000000000000FFFFFFFF00000000BB
:1039D000FFFF0000000000000000000000000000E9
:1039E00000000000FFFFFFFF00000000FFFF0000DD
:1039F00000000000000000000000000000000000C7
:103A0000FFFFFFFF00000000FFFF000000000000BC
:103A1000000000000000000000000000FFFFFFFFAA
:103A200000000000FFFF0000000000000000000098
:103A30000000000000000000FFFFFFFF000000008A
:103A4000FFFF000000000000000000000000000078
:103A5000020000000000000021330008913300083C
:103A6000400040007C0D0020900D0020020000006E
:103A70000000000000000000000000000000000046
:103A800012000000503B0008000000000000000091
:103A90000403090400000000000000000000000012
:103AA0000600FF0001A1010901150026FF007508AD
:103AB000954081020901150026FF00750895409187
:103AC00002C0000000000000000000000000000034
:103AD00022000000A03A00080000000000000000E2
:103AE00020000000803B00080000000000000000F3
:103AF000160341006200730065006E0063006500FC
:103B00002E006900740000000000000000000000AA
:103B100004000000903A000816000000F03A000887
:103B20000C000000B03B0008080000000008002066
:103B300010000000A03B0008000000000000000092
:103B40004134000831330008F13300080000000060
:103B500012011001000000408304405700000102E0
:103B60000301000000000000000000000000000051
:103B700009000000923B0008000000000000000067
:103B800009022000010100C0320904000002FF0008
:103B900000040705810240000A0705010240000AEF
:103BA0000C03530074006F00720061006700650031
:0C3BB0000C034D006F006F006F0044001C
:103BC0000803330036003600A086010080000000A4
:103BD0001137000801000000000000000000000094
:103BE00000000000010000000000000001000000D3
:0C3BF000000000000000000000000000C9
:04000005080002618C
:00000001FF
